{
  "contractName": "ZombieHelper",
  "abi": [
    {
      "anonymous": false,
      "inputs": [
        {
          "indexed": false,
          "internalType": "uint256",
          "name": "zombieId",
          "type": "uint256"
        },
        {
          "indexed": false,
          "internalType": "string",
          "name": "name",
          "type": "string"
        },
        {
          "indexed": false,
          "internalType": "uint256",
          "name": "dna",
          "type": "uint256"
        }
      ],
      "name": "NewZombie",
      "type": "event"
    },
    {
      "anonymous": false,
      "inputs": [
        {
          "indexed": true,
          "internalType": "address",
          "name": "previousOwner",
          "type": "address"
        },
        {
          "indexed": true,
          "internalType": "address",
          "name": "newOwner",
          "type": "address"
        }
      ],
      "name": "OwnershipTransferred",
      "type": "event"
    },
    {
      "inputs": [
        {
          "internalType": "string",
          "name": "_name",
          "type": "string"
        }
      ],
      "name": "createRandomZombie",
      "outputs": [],
      "stateMutability": "nonpayable",
      "type": "function"
    },
    {
      "inputs": [
        {
          "internalType": "uint256",
          "name": "_zombieId",
          "type": "uint256"
        },
        {
          "internalType": "uint256",
          "name": "_kittyId",
          "type": "uint256"
        }
      ],
      "name": "feedOnKitty",
      "outputs": [],
      "stateMutability": "nonpayable",
      "type": "function"
    },
    {
      "inputs": [],
      "name": "isOwner",
      "outputs": [
        {
          "internalType": "bool",
          "name": "",
          "type": "bool"
        }
      ],
      "stateMutability": "view",
      "type": "function"
    },
    {
      "inputs": [],
      "name": "owner",
      "outputs": [
        {
          "internalType": "address",
          "name": "",
          "type": "address"
        }
      ],
      "stateMutability": "view",
      "type": "function"
    },
    {
      "inputs": [],
      "name": "renounceOwnership",
      "outputs": [],
      "stateMutability": "nonpayable",
      "type": "function"
    },
    {
      "inputs": [
        {
          "internalType": "address",
          "name": "_address",
          "type": "address"
        }
      ],
      "name": "setKittyContractAddress",
      "outputs": [],
      "stateMutability": "nonpayable",
      "type": "function"
    },
    {
      "inputs": [
        {
          "internalType": "address",
          "name": "newOwner",
          "type": "address"
        }
      ],
      "name": "transferOwnership",
      "outputs": [],
      "stateMutability": "nonpayable",
      "type": "function"
    },
    {
      "inputs": [
        {
          "internalType": "uint256",
          "name": "",
          "type": "uint256"
        }
      ],
      "name": "zombieToOwner",
      "outputs": [
        {
          "internalType": "address",
          "name": "",
          "type": "address"
        }
      ],
      "stateMutability": "view",
      "type": "function"
    },
    {
      "inputs": [
        {
          "internalType": "uint256",
          "name": "",
          "type": "uint256"
        }
      ],
      "name": "zombies",
      "outputs": [
        {
          "internalType": "string",
          "name": "name",
          "type": "string"
        },
        {
          "internalType": "uint256",
          "name": "dna",
          "type": "uint256"
        },
        {
          "internalType": "uint32",
          "name": "level",
          "type": "uint32"
        },
        {
          "internalType": "uint32",
          "name": "readyTime",
          "type": "uint32"
        },
        {
          "internalType": "uint16",
          "name": "winCount",
          "type": "uint16"
        },
        {
          "internalType": "uint16",
          "name": "lossCount",
          "type": "uint16"
        }
      ],
      "stateMutability": "view",
      "type": "function"
    },
    {
      "inputs": [],
      "name": "withdraw",
      "outputs": [],
      "stateMutability": "nonpayable",
      "type": "function"
    },
    {
      "inputs": [
        {
          "internalType": "uint256",
          "name": "_fee",
          "type": "uint256"
        }
      ],
      "name": "setLevelUpFee",
      "outputs": [],
      "stateMutability": "nonpayable",
      "type": "function"
    },
    {
      "inputs": [
        {
          "internalType": "uint256",
          "name": "_zombieId",
          "type": "uint256"
        }
      ],
      "name": "levelUp",
      "outputs": [],
      "stateMutability": "payable",
      "type": "function"
    },
    {
      "inputs": [],
      "name": "getLevelUpFee",
      "outputs": [
        {
          "internalType": "uint256",
          "name": "",
          "type": "uint256"
        }
      ],
      "stateMutability": "view",
      "type": "function"
    },
    {
      "inputs": [
        {
          "internalType": "uint256",
          "name": "_zombieId",
          "type": "uint256"
        },
        {
          "internalType": "string",
          "name": "_newName",
          "type": "string"
        }
      ],
      "name": "changeName",
      "outputs": [],
      "stateMutability": "nonpayable",
      "type": "function"
    },
    {
      "inputs": [
        {
          "internalType": "uint256",
          "name": "_zombieId",
          "type": "uint256"
        },
        {
          "internalType": "uint256",
          "name": "_newDna",
          "type": "uint256"
        }
      ],
      "name": "changeDna",
      "outputs": [],
      "stateMutability": "nonpayable",
      "type": "function"
    },
    {
      "inputs": [
        {
          "internalType": "address",
          "name": "_owner",
          "type": "address"
        }
      ],
      "name": "getZombiesByOwner",
      "outputs": [
        {
          "internalType": "uint256[]",
          "name": "",
          "type": "uint256[]"
        }
      ],
      "stateMutability": "view",
      "type": "function"
    }
  ],
  "bytecode": "0x60806040526010600155600154600a6200001a91906200028b565b6002556201518060035566038d7ea4c680006008553480156200003c57600080fd5b50336000806101000a81548173ffffffffffffffffffffffffffffffffffffffff021916908373ffffffffffffffffffffffffffffffffffffffff16021790555060008054906101000a900473ffffffffffffffffffffffffffffffffffffffff1673ffffffffffffffffffffffffffffffffffffffff16600073ffffffffffffffffffffffffffffffffffffffff167f8be0079c531659141344cd1fd0a4f28419497f9722a3daafe3b4186f6b6457e060405160405180910390a3620002dc565b7f4e487b7100000000000000000000000000000000000000000000000000000000600052601160045260246000fd5b60008160011c9050919050565b6000808291508390505b60018511156200018c57808604811115620001645762000163620000fe565b5b6001851615620001745780820291505b808102905062000184856200012d565b945062000144565b94509492505050565b600082620001a757600190506200027a565b81620001b757600090506200027a565b8160018114620001d05760028114620001db5762000211565b60019150506200027a565b60ff841115620001f057620001ef620000fe565b5b8360020a9150848211156200020a5762000209620000fe565b5b506200027a565b5060208310610133831016604e8410600b84101617156200024b5782820a905083811115620002455762000244620000fe565b5b6200027a565b6200025a84848460016200013a565b92509050818404811115620002745762000273620000fe565b5b81810290505b9392505050565b6000819050919050565b6000620002988262000281565b9150620002a58362000281565b9250620002d47fffffffffffffffffffffffffffffffffffffffffffffffffffffffffffffffff848462000195565b905092915050565b611e2280620002ec6000396000f3fe6080604052600436106100f35760003560e01c80636b2f60c81161008a5780638f32d59b116100595780638f32d59b146102f8578063c39cbef114610323578063ccf670f81461034c578063f2fde38b14610375576100f3565b80636b2f60c814610262578063715018a61461028d5780637bff0a01146102a45780638da5cb5b146102cd576100f3565b80634412e104116100c65780634412e10414610196578063528b7b8f146101d35780635f4623f1146102105780635faf288014610239576100f3565b80630ce90ec2146100f857806317a7f4cc146101145780632052465e1461013d5780633ccfd60b1461017f575b600080fd5b610112600480360381019061010d91906113ad565b61039e565b005b34801561012057600080fd5b5061013b600480360381019061013691906113da565b610413565b005b34801561014957600080fd5b50610164600480360381019061015f91906113ad565b610540565b604051610176969594939291906114fe565b60405180910390f35b34801561018b57600080fd5b50610194610650565b005b3480156101a257600080fd5b506101bd60048036038101906101b891906115c4565b6106b7565b6040516101ca91906116af565b60405180910390f35b3480156101df57600080fd5b506101fa60048036038101906101f591906113ad565b61080a565b60405161020791906116e0565b60405180910390f35b34801561021c57600080fd5b50610237600480360381019061023291906115c4565b61083d565b005b34801561024557600080fd5b50610260600480360381019061025b91906113da565b610892565b005b34801561026e57600080fd5b506102776109e5565b60405161028491906116fb565b60405180910390f35b34801561029957600080fd5b506102a26109ef565b005b3480156102b057600080fd5b506102cb60048036038101906102c6919061184b565b610abe565b005b3480156102d957600080fd5b506102e2610b25565b6040516102ef91906116e0565b60405180910390f35b34801561030457600080fd5b5061030d610b4e565b60405161031a91906118af565b60405180910390f35b34801561032f57600080fd5b5061034a6004803603810190610345919061192a565b610ba5565b005b34801561035857600080fd5b50610373600480360381019061036e91906113ad565b610c99565b005b34801561038157600080fd5b5061039c600480360381019061039791906115c4565b610cb4565b005b60085434146103ac57600080fd5b600481815481106103c0576103bf61198a565b5b9060005260206000209060030201600201600081819054906101000a900463ffffffff16809291906103f1906119e8565b91906101000a81548163ffffffff021916908363ffffffff1602179055505050565b6000600760009054906101000a900473ffffffffffffffffffffffffffffffffffffffff1673ffffffffffffffffffffffffffffffffffffffff1663e98b7f4d836040518263ffffffff1660e01b815260040161047091906116fb565b6101406040518083038186803b15801561048957600080fd5b505afa15801561049d573d6000803e3d6000fd5b505050506040513d601f19601f820116820180604052508101906104c19190611a56565b9091929394959697985090919293949596975090919293949596509091929394955090919293945090919293509091925090915090508091505061053b83826040518060400160405280600581526020017f6b69747479000000000000000000000000000000000000000000000000000000815250610cd1565b505050565b6004818154811061055057600080fd5b906000526020600020906003020160009150905080600001805461057390611b64565b80601f016020809104026020016040519081016040528092919081815260200182805461059f90611b64565b80156105ec5780601f106105c1576101008083540402835291602001916105ec565b820191906000526020600020905b8154815290600101906020018083116105cf57829003601f168201915b5050505050908060010154908060020160009054906101000a900463ffffffff16908060020160049054906101000a900463ffffffff16908060020160089054906101000a900461ffff169080600201600a9054906101000a900461ffff16905086565b610658610b4e565b61066157600080fd5b600061066b610b25565b90508073ffffffffffffffffffffffffffffffffffffffff166108fc479081150290604051600060405180830381858888f193505050501580156106b3573d6000803e3d6000fd5b5050565b60606000600660008473ffffffffffffffffffffffffffffffffffffffff1673ffffffffffffffffffffffffffffffffffffffff1681526020019081526020016000205467ffffffffffffffff81111561071457610713611720565b5b6040519080825280602002602001820160405280156107425781602001602082028036833780820191505090505b5090506000805b6004805490508110156107ff578473ffffffffffffffffffffffffffffffffffffffff166005600083815260200190815260200160002060009054906101000a900473ffffffffffffffffffffffffffffffffffffffff1673ffffffffffffffffffffffffffffffffffffffff1614156107ec57808383815181106107d1576107d061198a565b5b60200260200101818152505081806107e890611b96565b9250505b80806107f790611b96565b915050610749565b508192505050919050565b60056020528060005260406000206000915054906101000a900473ffffffffffffffffffffffffffffffffffffffff1681565b610845610b4e565b61084e57600080fd5b80600760006101000a81548173ffffffffffffffffffffffffffffffffffffffff021916908373ffffffffffffffffffffffffffffffffffffffff16021790555050565b60148281600482815481106108aa576108a961198a565b5b906000526020600020906003020160020160009054906101000a900463ffffffff1663ffffffff1610156108dd57600080fd5b836005600082815260200190815260200160002060009054906101000a900473ffffffffffffffffffffffffffffffffffffffff1673ffffffffffffffffffffffffffffffffffffffff163373ffffffffffffffffffffffffffffffffffffffff161461094957600080fd5b6005600086815260200190815260200160002060009054906101000a900473ffffffffffffffffffffffffffffffffffffffff1673ffffffffffffffffffffffffffffffffffffffff163373ffffffffffffffffffffffffffffffffffffffff16146109b457600080fd5b83600486815481106109c9576109c861198a565b5b9060005260206000209060030201600101819055505050505050565b6000600854905090565b6109f7610b4e565b610a0057600080fd5b600073ffffffffffffffffffffffffffffffffffffffff1660008054906101000a900473ffffffffffffffffffffffffffffffffffffffff1673ffffffffffffffffffffffffffffffffffffffff167f8be0079c531659141344cd1fd0a4f28419497f9722a3daafe3b4186f6b6457e060405160405180910390a360008060006101000a81548173ffffffffffffffffffffffffffffffffffffffff021916908373ffffffffffffffffffffffffffffffffffffffff160217905550565b6000600660003373ffffffffffffffffffffffffffffffffffffffff1673ffffffffffffffffffffffffffffffffffffffff1681526020019081526020016000205414610b0a57600080fd5b6000610b1582610e6e565b9050610b218282610eb3565b5050565b60008060009054906101000a900473ffffffffffffffffffffffffffffffffffffffff16905090565b60008060009054906101000a900473ffffffffffffffffffffffffffffffffffffffff1673ffffffffffffffffffffffffffffffffffffffff163373ffffffffffffffffffffffffffffffffffffffff1614905090565b6002838160048281548110610bbd57610bbc61198a565b5b906000526020600020906003020160020160009054906101000a900463ffffffff1663ffffffff161015610bf057600080fd5b846005600082815260200190815260200160002060009054906101000a900473ffffffffffffffffffffffffffffffffffffffff1673ffffffffffffffffffffffffffffffffffffffff163373ffffffffffffffffffffffffffffffffffffffff1614610c5c57600080fd5b848460048881548110610c7257610c7161198a565b5b90600052602060002090600302016000019190610c9092919061123a565b50505050505050565b610ca1610b4e565b610caa57600080fd5b8060088190555050565b610cbc610b4e565b610cc557600080fd5b610cce816110e9565b50565b826005600082815260200190815260200160002060009054906101000a900473ffffffffffffffffffffffffffffffffffffffff1673ffffffffffffffffffffffffffffffffffffffff163373ffffffffffffffffffffffffffffffffffffffff1614610d3d57600080fd5b600060048581548110610d5357610d5261198a565b5b90600052602060002090600302019050610d6c816111e0565b610d7557600080fd5b60025484610d839190611c0e565b935060006002858360010154610d999190611c3f565b610da39190611c95565b9050604051602001610db490611d1d565b6040516020818303038152906040528051906020012084604051602001610ddb9190611d63565b604051602081830303815290604052805190602001201415610e1e576063606482610e069190611c0e565b82610e119190611d7a565b610e1b9190611c3f565b90505b610e5d6040518060400160405280600681526020017f4e6f4e616d65000000000000000000000000000000000000000000000000000081525082610eb3565b610e6682611207565b505050505050565b60008082604051602001610e829190611d63565b6040516020818303038152906040528051906020012060001c905060025481610eab9190611c0e565b915050919050565b60046040518060c00160405280848152602001838152602001600163ffffffff16815260200160035442610ee79190611c3f565b63ffffffff168152602001600061ffff168152602001600061ffff1681525090806001815401808255809150506001900390600052602060002090600302016000909190919091506000820151816000019080519060200190610f4b9291906112c0565b506020820151816001015560408201518160020160006101000a81548163ffffffff021916908363ffffffff16021790555060608201518160020160046101000a81548163ffffffff021916908363ffffffff16021790555060808201518160020160086101000a81548161ffff021916908361ffff16021790555060a082015181600201600a6101000a81548161ffff021916908361ffff1602179055505050600060016004805490506110009190611d7a565b9050336005600083815260200190815260200160002060006101000a81548173ffffffffffffffffffffffffffffffffffffffff021916908373ffffffffffffffffffffffffffffffffffffffff160217905550600660003373ffffffffffffffffffffffffffffffffffffffff1673ffffffffffffffffffffffffffffffffffffffff16815260200190815260200160002060008154809291906110a490611b96565b91905055507f88f026aacbbecc90c18411df4b1185fd8d9be2470f1962f192bf84a27d0704b78184846040516110dc93929190611dae565b60405180910390a1505050565b600073ffffffffffffffffffffffffffffffffffffffff168173ffffffffffffffffffffffffffffffffffffffff16141561112357600080fd5b8073ffffffffffffffffffffffffffffffffffffffff1660008054906101000a900473ffffffffffffffffffffffffffffffffffffffff1673ffffffffffffffffffffffffffffffffffffffff167f8be0079c531659141344cd1fd0a4f28419497f9722a3daafe3b4186f6b6457e060405160405180910390a3806000806101000a81548173ffffffffffffffffffffffffffffffffffffffff021916908373ffffffffffffffffffffffffffffffffffffffff16021790555050565b6000428260020160049054906101000a900463ffffffff1663ffffffff1611159050919050565b600354426112159190611c3f565b8160020160046101000a81548163ffffffff021916908363ffffffff16021790555050565b82805461124690611b64565b90600052602060002090601f01602090048101928261126857600085556112af565b82601f1061128157803560ff19168380011785556112af565b828001600101855582156112af579182015b828111156112ae578235825591602001919060010190611293565b5b5090506112bc9190611346565b5090565b8280546112cc90611b64565b90600052602060002090601f0160209004810192826112ee5760008555611335565b82601f1061130757805160ff1916838001178555611335565b82800160010185558215611335579182015b82811115611334578251825591602001919060010190611319565b5b5090506113429190611346565b5090565b5b8082111561135f576000816000905550600101611347565b5090565b6000604051905090565b600080fd5b600080fd5b6000819050919050565b61138a81611377565b811461139557600080fd5b50565b6000813590506113a781611381565b92915050565b6000602082840312156113c3576113c261136d565b5b60006113d184828501611398565b91505092915050565b600080604083850312156113f1576113f061136d565b5b60006113ff85828601611398565b925050602061141085828601611398565b9150509250929050565b600081519050919050565b600082825260208201905092915050565b60005b83811015611454578082015181840152602081019050611439565b83811115611463576000848401525b50505050565b6000601f19601f8301169050919050565b60006114858261141a565b61148f8185611425565b935061149f818560208601611436565b6114a881611469565b840191505092915050565b6114bc81611377565b82525050565b600063ffffffff82169050919050565b6114db816114c2565b82525050565b600061ffff82169050919050565b6114f8816114e1565b82525050565b600060c0820190508181036000830152611518818961147a565b905061152760208301886114b3565b61153460408301876114d2565b61154160608301866114d2565b61154e60808301856114ef565b61155b60a08301846114ef565b979650505050505050565b600073ffffffffffffffffffffffffffffffffffffffff82169050919050565b600061159182611566565b9050919050565b6115a181611586565b81146115ac57600080fd5b50565b6000813590506115be81611598565b92915050565b6000602082840312156115da576115d961136d565b5b60006115e8848285016115af565b91505092915050565b600081519050919050565b600082825260208201905092915050565b6000819050602082019050919050565b61162681611377565b82525050565b6000611638838361161d565b60208301905092915050565b6000602082019050919050565b600061165c826115f1565b61166681856115fc565b93506116718361160d565b8060005b838110156116a2578151611689888261162c565b975061169483611644565b925050600181019050611675565b5085935050505092915050565b600060208201905081810360008301526116c98184611651565b905092915050565b6116da81611586565b82525050565b60006020820190506116f560008301846116d1565b92915050565b600060208201905061171060008301846114b3565b92915050565b600080fd5b600080fd5b7f4e487b7100000000000000000000000000000000000000000000000000000000600052604160045260246000fd5b61175882611469565b810181811067ffffffffffffffff8211171561177757611776611720565b5b80604052505050565b600061178a611363565b9050611796828261174f565b919050565b600067ffffffffffffffff8211156117b6576117b5611720565b5b6117bf82611469565b9050602081019050919050565b82818337600083830152505050565b60006117ee6117e98461179b565b611780565b90508281526020810184848401111561180a5761180961171b565b5b6118158482856117cc565b509392505050565b600082601f83011261183257611831611716565b5b81356118428482602086016117db565b91505092915050565b6000602082840312156118615761186061136d565b5b600082013567ffffffffffffffff81111561187f5761187e611372565b5b61188b8482850161181d565b91505092915050565b60008115159050919050565b6118a981611894565b82525050565b60006020820190506118c460008301846118a0565b92915050565b600080fd5b600080fd5b60008083601f8401126118ea576118e9611716565b5b8235905067ffffffffffffffff811115611907576119066118ca565b5b602083019150836001820283011115611923576119226118cf565b5b9250929050565b6000806000604084860312156119435761194261136d565b5b600061195186828701611398565b935050602084013567ffffffffffffffff81111561197257611971611372565b5b61197e868287016118d4565b92509250509250925092565b7f4e487b7100000000000000000000000000000000000000000000000000000000600052603260045260246000fd5b7f4e487b7100000000000000000000000000000000000000000000000000000000600052601160045260246000fd5b60006119f3826114c2565b915063ffffffff821415611a0a57611a096119b9565b5b600182019050919050565b611a1e81611894565b8114611a2957600080fd5b50565b600081519050611a3b81611a15565b92915050565b600081519050611a5081611381565b92915050565b6000806000806000806000806000806101408b8d031215611a7a57611a7961136d565b5b6000611a888d828e01611a2c565b9a50506020611a998d828e01611a2c565b9950506040611aaa8d828e01611a41565b9850506060611abb8d828e01611a41565b9750506080611acc8d828e01611a41565b96505060a0611add8d828e01611a41565b95505060c0611aee8d828e01611a41565b94505060e0611aff8d828e01611a41565b935050610100611b118d828e01611a41565b925050610120611b238d828e01611a41565b9150509295989b9194979a5092959850565b7f4e487b7100000000000000000000000000000000000000000000000000000000600052602260045260246000fd5b60006002820490506001821680611b7c57607f821691505b60208210811415611b9057611b8f611b35565b5b50919050565b6000611ba182611377565b91507fffffffffffffffffffffffffffffffffffffffffffffffffffffffffffffffff821415611bd457611bd36119b9565b5b600182019050919050565b7f4e487b7100000000000000000000000000000000000000000000000000000000600052601260045260246000fd5b6000611c1982611377565b9150611c2483611377565b925082611c3457611c33611bdf565b5b828206905092915050565b6000611c4a82611377565b9150611c5583611377565b9250827fffffffffffffffffffffffffffffffffffffffffffffffffffffffffffffffff03821115611c8a57611c896119b9565b5b828201905092915050565b6000611ca082611377565b9150611cab83611377565b925082611cbb57611cba611bdf565b5b828204905092915050565b600081905092915050565b7f6b69747479000000000000000000000000000000000000000000000000000000600082015250565b6000611d07600583611cc6565b9150611d1282611cd1565b600582019050919050565b6000611d2882611cfa565b9150819050919050565b6000611d3d8261141a565b611d478185611cc6565b9350611d57818560208601611436565b80840191505092915050565b6000611d6f8284611d32565b915081905092915050565b6000611d8582611377565b9150611d9083611377565b925082821015611da357611da26119b9565b5b828203905092915050565b6000606082019050611dc360008301866114b3565b8181036020830152611dd5818561147a565b9050611de460408301846114b3565b94935050505056fea2646970667358221220bbfd94f2058fc1fca2ff53425b57dbec9e7afabb4d2dbede2989895c9d51f0ec64736f6c63430008090033",
  "immutableReferences": {},
  "source": "// SPDX-License-Identifier: MIT\npragma solidity >=0.4.22 <0.9.0;\n\nimport \"./ZombieFeeding.sol\";\n\ncontract ZombieHelper is ZombieFeeding {\n    uint256 levelUpFee = 0.001 ether;\n\n    modifier aboveLevel(uint256 _level, uint256 _zombieId) {\n        require(zombies[_zombieId].level >= _level);\n        _;\n    }\n\n    function withdraw() external onlyOwner {\n        address payable _owner = payable(owner());\n        _owner.transfer(address(this).balance);\n    }\n\n    function setLevelUpFee(uint256 _fee) external onlyOwner {\n        levelUpFee = _fee;\n    }\n\n    function levelUp(uint256 _zombieId) external payable {\n        require(msg.value == levelUpFee);\n        zombies[_zombieId].level++;\n    }\n\n    function getLevelUpFee() external view returns (uint256) {\n        return levelUpFee;\n    }\n\n    function changeName(uint256 _zombieId, string calldata _newName)\n        external\n        aboveLevel(2, _zombieId)\n        onlyOwnerOf(_zombieId)\n    {\n        zombies[_zombieId].name = _newName;\n    }\n\n    function changeDna(uint256 _zombieId, uint256 _newDna)\n        external\n        aboveLevel(20, _zombieId)\n        onlyOwnerOf(_zombieId)\n    {\n        require(msg.sender == zombieToOwner[_zombieId]);\n        zombies[_zombieId].dna = _newDna;\n    }\n\n    function getZombiesByOwner(address _owner)\n        external\n        view\n        returns (uint256[] memory)\n    {\n        uint256[] memory result = new uint256[](ownerZombieCount[_owner]);\n        uint256 counter = 0;\n        for (uint256 i = 0; i < zombies.length; i++) {\n            if (zombieToOwner[i] == _owner) {\n                result[counter] = i;\n                counter++;\n            }\n        }\n        return result;\n    }\n}\n",
  "sourcePath": "/Users/samir/Desktop/dApp/contracts/ZombieHelper.sol",
  "compiler": {
    "name": "solc",
    "version": "0.8.9+commit.e5eed63a.Emscripten.clang"
  },
  "schemaVersion": "3.4.3",
  "updatedAt": "2021-11-04T17:00:08.913Z",
  "devdoc": {
    "kind": "dev",
    "methods": {
      "isOwner()": {
        "returns": {
          "_0": "true if `msg.sender` is the owner of the contract."
        }
      },
      "owner()": {
        "returns": {
          "_0": "the address of the owner."
        }
      },
      "renounceOwnership()": {
        "details": "Allows the current owner to relinquish control of the contract."
      },
      "transferOwnership(address)": {
        "details": "Allows the current owner to transfer control of the contract to a newOwner.",
        "params": {
          "newOwner": "The address to transfer ownership to."
        }
      }
    },
    "version": 1
  },
  "userdoc": {
    "kind": "user",
    "methods": {
      "renounceOwnership()": {
        "notice": "Renouncing to ownership will leave the contract without an owner. It will not be possible to call the functions with the `onlyOwner` modifier anymore."
      }
    },
    "version": 1
  }
}