{
  "contractName": "ZombieAttack",
  "abi": [
    {
      "anonymous": false,
      "inputs": [
        {
          "indexed": false,
          "internalType": "uint256",
          "name": "zombieId",
          "type": "uint256"
        },
        {
          "indexed": false,
          "internalType": "string",
          "name": "name",
          "type": "string"
        },
        {
          "indexed": false,
          "internalType": "uint256",
          "name": "dna",
          "type": "uint256"
        }
      ],
      "name": "NewZombie",
      "type": "event"
    },
    {
      "anonymous": false,
      "inputs": [
        {
          "indexed": true,
          "internalType": "address",
          "name": "previousOwner",
          "type": "address"
        },
        {
          "indexed": true,
          "internalType": "address",
          "name": "newOwner",
          "type": "address"
        }
      ],
      "name": "OwnershipTransferred",
      "type": "event"
    },
    {
      "inputs": [
        {
          "internalType": "uint256",
          "name": "_zombieId",
          "type": "uint256"
        },
        {
          "internalType": "uint256",
          "name": "_newDna",
          "type": "uint256"
        }
      ],
      "name": "changeDna",
      "outputs": [],
      "stateMutability": "nonpayable",
      "type": "function"
    },
    {
      "inputs": [
        {
          "internalType": "uint256",
          "name": "_zombieId",
          "type": "uint256"
        },
        {
          "internalType": "string",
          "name": "_newName",
          "type": "string"
        }
      ],
      "name": "changeName",
      "outputs": [],
      "stateMutability": "nonpayable",
      "type": "function"
    },
    {
      "inputs": [
        {
          "internalType": "string",
          "name": "_name",
          "type": "string"
        }
      ],
      "name": "createRandomZombie",
      "outputs": [],
      "stateMutability": "nonpayable",
      "type": "function"
    },
    {
      "inputs": [
        {
          "internalType": "uint256",
          "name": "_zombieId",
          "type": "uint256"
        },
        {
          "internalType": "uint256",
          "name": "_kittyId",
          "type": "uint256"
        }
      ],
      "name": "feedOnKitty",
      "outputs": [],
      "stateMutability": "nonpayable",
      "type": "function"
    },
    {
      "inputs": [],
      "name": "getLevelUpFee",
      "outputs": [
        {
          "internalType": "uint256",
          "name": "",
          "type": "uint256"
        }
      ],
      "stateMutability": "view",
      "type": "function"
    },
    {
      "inputs": [
        {
          "internalType": "address",
          "name": "_owner",
          "type": "address"
        }
      ],
      "name": "getZombiesByOwner",
      "outputs": [
        {
          "internalType": "uint256[]",
          "name": "",
          "type": "uint256[]"
        }
      ],
      "stateMutability": "view",
      "type": "function"
    },
    {
      "inputs": [],
      "name": "isOwner",
      "outputs": [
        {
          "internalType": "bool",
          "name": "",
          "type": "bool"
        }
      ],
      "stateMutability": "view",
      "type": "function"
    },
    {
      "inputs": [
        {
          "internalType": "uint256",
          "name": "_zombieId",
          "type": "uint256"
        }
      ],
      "name": "levelUp",
      "outputs": [],
      "stateMutability": "payable",
      "type": "function"
    },
    {
      "inputs": [],
      "name": "owner",
      "outputs": [
        {
          "internalType": "address",
          "name": "",
          "type": "address"
        }
      ],
      "stateMutability": "view",
      "type": "function"
    },
    {
      "inputs": [],
      "name": "renounceOwnership",
      "outputs": [],
      "stateMutability": "nonpayable",
      "type": "function"
    },
    {
      "inputs": [
        {
          "internalType": "address",
          "name": "_address",
          "type": "address"
        }
      ],
      "name": "setKittyContractAddress",
      "outputs": [],
      "stateMutability": "nonpayable",
      "type": "function"
    },
    {
      "inputs": [
        {
          "internalType": "uint256",
          "name": "_fee",
          "type": "uint256"
        }
      ],
      "name": "setLevelUpFee",
      "outputs": [],
      "stateMutability": "nonpayable",
      "type": "function"
    },
    {
      "inputs": [
        {
          "internalType": "address",
          "name": "newOwner",
          "type": "address"
        }
      ],
      "name": "transferOwnership",
      "outputs": [],
      "stateMutability": "nonpayable",
      "type": "function"
    },
    {
      "inputs": [],
      "name": "withdraw",
      "outputs": [],
      "stateMutability": "nonpayable",
      "type": "function"
    },
    {
      "inputs": [
        {
          "internalType": "uint256",
          "name": "",
          "type": "uint256"
        }
      ],
      "name": "zombieToOwner",
      "outputs": [
        {
          "internalType": "address",
          "name": "",
          "type": "address"
        }
      ],
      "stateMutability": "view",
      "type": "function"
    },
    {
      "inputs": [
        {
          "internalType": "uint256",
          "name": "",
          "type": "uint256"
        }
      ],
      "name": "zombies",
      "outputs": [
        {
          "internalType": "string",
          "name": "name",
          "type": "string"
        },
        {
          "internalType": "uint256",
          "name": "dna",
          "type": "uint256"
        },
        {
          "internalType": "uint32",
          "name": "level",
          "type": "uint32"
        },
        {
          "internalType": "uint32",
          "name": "readyTime",
          "type": "uint32"
        },
        {
          "internalType": "uint16",
          "name": "winCount",
          "type": "uint16"
        },
        {
          "internalType": "uint16",
          "name": "lossCount",
          "type": "uint16"
        }
      ],
      "stateMutability": "view",
      "type": "function"
    },
    {
      "inputs": [
        {
          "internalType": "uint256",
          "name": "_zombieId",
          "type": "uint256"
        },
        {
          "internalType": "uint256",
          "name": "_targetId",
          "type": "uint256"
        }
      ],
      "name": "attack",
      "outputs": [],
      "stateMutability": "nonpayable",
      "type": "function"
    }
  ],
  "bytecode": "0x60806040526010600155600154600a6200001a919062000295565b6002556201518060035566038d7ea4c6800060085560006009556046600a553480156200004657600080fd5b50336000806101000a81548173ffffffffffffffffffffffffffffffffffffffff021916908373ffffffffffffffffffffffffffffffffffffffff16021790555060008054906101000a900473ffffffffffffffffffffffffffffffffffffffff1673ffffffffffffffffffffffffffffffffffffffff16600073ffffffffffffffffffffffffffffffffffffffff167f8be0079c531659141344cd1fd0a4f28419497f9722a3daafe3b4186f6b6457e060405160405180910390a3620002e6565b7f4e487b7100000000000000000000000000000000000000000000000000000000600052601160045260246000fd5b60008160011c9050919050565b6000808291508390505b600185111562000196578086048111156200016e576200016d62000108565b5b60018516156200017e5780820291505b80810290506200018e8562000137565b94506200014e565b94509492505050565b600082620001b1576001905062000284565b81620001c1576000905062000284565b8160018114620001da5760028114620001e5576200021b565b600191505062000284565b60ff841115620001fa57620001f962000108565b5b8360020a91508482111562000214576200021362000108565b5b5062000284565b5060208310610133831016604e8410600b8410161715620002555782820a9050838111156200024f576200024e62000108565b5b62000284565b62000264848484600162000144565b925090508184048111156200027e576200027d62000108565b5b81810290505b9392505050565b6000819050919050565b6000620002a2826200028b565b9150620002af836200028b565b9250620002de7fffffffffffffffffffffffffffffffffffffffffffffffffffffffffffffffff84846200019f565b905092915050565b6121e480620002f66000396000f3fe6080604052600436106100fe5760003560e01c80636b2f60c8116100955780638f32d59b116100645780638f32d59b14610303578063c39cbef11461032e578063ccf670f814610357578063e1fa763814610380578063f2fde38b146103a9576100fe565b80636b2f60c81461026d578063715018a6146102985780637bff0a01146102af5780638da5cb5b146102d8576100fe565b80634412e104116100d15780634412e104146101a1578063528b7b8f146101de5780635f4623f11461021b5780635faf288014610244576100fe565b80630ce90ec21461010357806317a7f4cc1461011f5780632052465e146101485780633ccfd60b1461018a575b600080fd5b61011d6004803603810190610118919061169e565b6103d2565b005b34801561012b57600080fd5b50610146600480360381019061014191906116cb565b610447565b005b34801561015457600080fd5b5061016f600480360381019061016a919061169e565b610574565b604051610181969594939291906117ef565b60405180910390f35b34801561019657600080fd5b5061019f610684565b005b3480156101ad57600080fd5b506101c860048036038101906101c391906118b5565b6106eb565b6040516101d591906119a0565b60405180910390f35b3480156101ea57600080fd5b506102056004803603810190610200919061169e565b61083e565b60405161021291906119d1565b60405180910390f35b34801561022757600080fd5b50610242600480360381019061023d91906118b5565b610871565b005b34801561025057600080fd5b5061026b600480360381019061026691906116cb565b6108c6565b005b34801561027957600080fd5b50610282610a19565b60405161028f91906119ec565b60405180910390f35b3480156102a457600080fd5b506102ad610a23565b005b3480156102bb57600080fd5b506102d660048036038101906102d19190611b3c565b610af2565b005b3480156102e457600080fd5b506102ed610b59565b6040516102fa91906119d1565b60405180910390f35b34801561030f57600080fd5b50610318610b82565b6040516103259190611ba0565b60405180910390f35b34801561033a57600080fd5b5061035560048036038101906103509190611c1b565b610bd9565b005b34801561036357600080fd5b5061037e6004803603810190610379919061169e565b610ccd565b005b34801561038c57600080fd5b506103a760048036038101906103a291906116cb565b610ce8565b005b3480156103b557600080fd5b506103d060048036038101906103cb91906118b5565b610f49565b005b60085434146103e057600080fd5b600481815481106103f4576103f3611c7b565b5b9060005260206000209060030201600201600081819054906101000a900463ffffffff168092919061042590611cd9565b91906101000a81548163ffffffff021916908363ffffffff1602179055505050565b6000600760009054906101000a900473ffffffffffffffffffffffffffffffffffffffff1673ffffffffffffffffffffffffffffffffffffffff1663e98b7f4d836040518263ffffffff1660e01b81526004016104a491906119ec565b6101406040518083038186803b1580156104bd57600080fd5b505afa1580156104d1573d6000803e3d6000fd5b505050506040513d601f19601f820116820180604052508101906104f59190611d47565b9091929394959697985090919293949596975090919293949596509091929394955090919293945090919293509091925090915090508091505061056f83826040518060400160405280600581526020017f6b69747479000000000000000000000000000000000000000000000000000000815250610f66565b505050565b6004818154811061058457600080fd5b90600052602060002090600302016000915090508060000180546105a790611e55565b80601f01602080910402602001604051908101604052809291908181526020018280546105d390611e55565b80156106205780601f106105f557610100808354040283529160200191610620565b820191906000526020600020905b81548152906001019060200180831161060357829003601f168201915b5050505050908060010154908060020160009054906101000a900463ffffffff16908060020160049054906101000a900463ffffffff16908060020160089054906101000a900461ffff169080600201600a9054906101000a900461ffff16905086565b61068c610b82565b61069557600080fd5b600061069f610b59565b90508073ffffffffffffffffffffffffffffffffffffffff166108fc479081150290604051600060405180830381858888f193505050501580156106e7573d6000803e3d6000fd5b5050565b60606000600660008473ffffffffffffffffffffffffffffffffffffffff1673ffffffffffffffffffffffffffffffffffffffff1681526020019081526020016000205467ffffffffffffffff81111561074857610747611a11565b5b6040519080825280602002602001820160405280156107765781602001602082028036833780820191505090505b5090506000805b600480549050811015610833578473ffffffffffffffffffffffffffffffffffffffff166005600083815260200190815260200160002060009054906101000a900473ffffffffffffffffffffffffffffffffffffffff1673ffffffffffffffffffffffffffffffffffffffff161415610820578083838151811061080557610804611c7b565b5b602002602001018181525050818061081c90611e87565b9250505b808061082b90611e87565b91505061077d565b508192505050919050565b60056020528060005260406000206000915054906101000a900473ffffffffffffffffffffffffffffffffffffffff1681565b610879610b82565b61088257600080fd5b80600760006101000a81548173ffffffffffffffffffffffffffffffffffffffff021916908373ffffffffffffffffffffffffffffffffffffffff16021790555050565b60148281600482815481106108de576108dd611c7b565b5b906000526020600020906003020160020160009054906101000a900463ffffffff1663ffffffff16101561091157600080fd5b836005600082815260200190815260200160002060009054906101000a900473ffffffffffffffffffffffffffffffffffffffff1673ffffffffffffffffffffffffffffffffffffffff163373ffffffffffffffffffffffffffffffffffffffff161461097d57600080fd5b6005600086815260200190815260200160002060009054906101000a900473ffffffffffffffffffffffffffffffffffffffff1673ffffffffffffffffffffffffffffffffffffffff163373ffffffffffffffffffffffffffffffffffffffff16146109e857600080fd5b83600486815481106109fd576109fc611c7b565b5b9060005260206000209060030201600101819055505050505050565b6000600854905090565b610a2b610b82565b610a3457600080fd5b600073ffffffffffffffffffffffffffffffffffffffff1660008054906101000a900473ffffffffffffffffffffffffffffffffffffffff1673ffffffffffffffffffffffffffffffffffffffff167f8be0079c531659141344cd1fd0a4f28419497f9722a3daafe3b4186f6b6457e060405160405180910390a360008060006101000a81548173ffffffffffffffffffffffffffffffffffffffff021916908373ffffffffffffffffffffffffffffffffffffffff160217905550565b6000600660003373ffffffffffffffffffffffffffffffffffffffff1673ffffffffffffffffffffffffffffffffffffffff1681526020019081526020016000205414610b3e57600080fd5b6000610b4982611103565b9050610b558282611148565b5050565b60008060009054906101000a900473ffffffffffffffffffffffffffffffffffffffff16905090565b60008060009054906101000a900473ffffffffffffffffffffffffffffffffffffffff1673ffffffffffffffffffffffffffffffffffffffff163373ffffffffffffffffffffffffffffffffffffffff1614905090565b6002838160048281548110610bf157610bf0611c7b565b5b906000526020600020906003020160020160009054906101000a900463ffffffff1663ffffffff161015610c2457600080fd5b846005600082815260200190815260200160002060009054906101000a900473ffffffffffffffffffffffffffffffffffffffff1673ffffffffffffffffffffffffffffffffffffffff163373ffffffffffffffffffffffffffffffffffffffff1614610c9057600080fd5b848460048881548110610ca657610ca5611c7b565b5b90600052602060002090600302016000019190610cc492919061152b565b50505050505050565b610cd5610b82565b610cde57600080fd5b8060088190555050565b816005600082815260200190815260200160002060009054906101000a900473ffffffffffffffffffffffffffffffffffffffff1673ffffffffffffffffffffffffffffffffffffffff163373ffffffffffffffffffffffffffffffffffffffff1614610d5457600080fd5b600060048481548110610d6a57610d69611c7b565b5b90600052602060002090600302019050600060048481548110610d9057610d8f611c7b565b5b906000526020600020906003020190506000610dac606461137e565b9050600a548111610ebd5782600201600881819054906101000a900461ffff1680929190610dd990611ed0565b91906101000a81548161ffff021916908361ffff1602179055505082600201600081819054906101000a900463ffffffff1680929190610e1890611cd9565b91906101000a81548163ffffffff021916908363ffffffff1602179055505081600201600a81819054906101000a900461ffff1680929190610e5990611ed0565b91906101000a81548161ffff021916908361ffff16021790555050610eb88683600101546040518060400160405280600681526020017f7a6f6d6269650000000000000000000000000000000000000000000000000000815250610f66565b610f41565b82600201600a81819054906101000a900461ffff1680929190610edf90611ed0565b91906101000a81548161ffff021916908361ffff1602179055505081600201600881819054906101000a900461ffff1680929190610f1c90611ed0565b91906101000a81548161ffff021916908361ffff16021790555050610f40836113da565b5b505050505050565b610f51610b82565b610f5a57600080fd5b610f638161140d565b50565b826005600082815260200190815260200160002060009054906101000a900473ffffffffffffffffffffffffffffffffffffffff1673ffffffffffffffffffffffffffffffffffffffff163373ffffffffffffffffffffffffffffffffffffffff1614610fd257600080fd5b600060048581548110610fe857610fe7611c7b565b5b9060005260206000209060030201905061100181611504565b61100a57600080fd5b600254846110189190611f2a565b93506000600285836001015461102e9190611f5b565b6110389190611fb1565b905060405160200161104990612039565b6040516020818303038152906040528051906020012084604051602001611070919061207f565b6040516020818303038152906040528051906020012014156110b357606360648261109b9190611f2a565b826110a69190612096565b6110b09190611f5b565b90505b6110f26040518060400160405280600681526020017f4e6f4e616d65000000000000000000000000000000000000000000000000000081525082611148565b6110fb826113da565b505050505050565b60008082604051602001611117919061207f565b6040516020818303038152906040528051906020012060001c9050600254816111409190611f2a565b915050919050565b60046040518060c00160405280848152602001838152602001600163ffffffff1681526020016003544261117c9190611f5b565b63ffffffff168152602001600061ffff168152602001600061ffff16815250908060018154018082558091505060019003906000526020600020906003020160009091909190915060008201518160000190805190602001906111e09291906115b1565b506020820151816001015560408201518160020160006101000a81548163ffffffff021916908363ffffffff16021790555060608201518160020160046101000a81548163ffffffff021916908363ffffffff16021790555060808201518160020160086101000a81548161ffff021916908361ffff16021790555060a082015181600201600a6101000a81548161ffff021916908361ffff1602179055505050600060016004805490506112959190612096565b9050336005600083815260200190815260200160002060006101000a81548173ffffffffffffffffffffffffffffffffffffffff021916908373ffffffffffffffffffffffffffffffffffffffff160217905550600660003373ffffffffffffffffffffffffffffffffffffffff1673ffffffffffffffffffffffffffffffffffffffff168152602001908152602001600020600081548092919061133990611e87565b91905055507f88f026aacbbecc90c18411df4b1185fd8d9be2470f1962f192bf84a27d0704b7818484604051611371939291906120ca565b60405180910390a1505050565b60006009600081548092919061139390611e87565b91905055508142336009546040516020016113b093929190612171565b6040516020818303038152906040528051906020012060001c6113d39190611f2a565b9050919050565b600354426113e89190611f5b565b8160020160046101000a81548163ffffffff021916908363ffffffff16021790555050565b600073ffffffffffffffffffffffffffffffffffffffff168173ffffffffffffffffffffffffffffffffffffffff16141561144757600080fd5b8073ffffffffffffffffffffffffffffffffffffffff1660008054906101000a900473ffffffffffffffffffffffffffffffffffffffff1673ffffffffffffffffffffffffffffffffffffffff167f8be0079c531659141344cd1fd0a4f28419497f9722a3daafe3b4186f6b6457e060405160405180910390a3806000806101000a81548173ffffffffffffffffffffffffffffffffffffffff021916908373ffffffffffffffffffffffffffffffffffffffff16021790555050565b6000428260020160049054906101000a900463ffffffff1663ffffffff1611159050919050565b82805461153790611e55565b90600052602060002090601f01602090048101928261155957600085556115a0565b82601f1061157257803560ff19168380011785556115a0565b828001600101855582156115a0579182015b8281111561159f578235825591602001919060010190611584565b5b5090506115ad9190611637565b5090565b8280546115bd90611e55565b90600052602060002090601f0160209004810192826115df5760008555611626565b82601f106115f857805160ff1916838001178555611626565b82800160010185558215611626579182015b8281111561162557825182559160200191906001019061160a565b5b5090506116339190611637565b5090565b5b80821115611650576000816000905550600101611638565b5090565b6000604051905090565b600080fd5b600080fd5b6000819050919050565b61167b81611668565b811461168657600080fd5b50565b60008135905061169881611672565b92915050565b6000602082840312156116b4576116b361165e565b5b60006116c284828501611689565b91505092915050565b600080604083850312156116e2576116e161165e565b5b60006116f085828601611689565b925050602061170185828601611689565b9150509250929050565b600081519050919050565b600082825260208201905092915050565b60005b8381101561174557808201518184015260208101905061172a565b83811115611754576000848401525b50505050565b6000601f19601f8301169050919050565b60006117768261170b565b6117808185611716565b9350611790818560208601611727565b6117998161175a565b840191505092915050565b6117ad81611668565b82525050565b600063ffffffff82169050919050565b6117cc816117b3565b82525050565b600061ffff82169050919050565b6117e9816117d2565b82525050565b600060c0820190508181036000830152611809818961176b565b905061181860208301886117a4565b61182560408301876117c3565b61183260608301866117c3565b61183f60808301856117e0565b61184c60a08301846117e0565b979650505050505050565b600073ffffffffffffffffffffffffffffffffffffffff82169050919050565b600061188282611857565b9050919050565b61189281611877565b811461189d57600080fd5b50565b6000813590506118af81611889565b92915050565b6000602082840312156118cb576118ca61165e565b5b60006118d9848285016118a0565b91505092915050565b600081519050919050565b600082825260208201905092915050565b6000819050602082019050919050565b61191781611668565b82525050565b6000611929838361190e565b60208301905092915050565b6000602082019050919050565b600061194d826118e2565b61195781856118ed565b9350611962836118fe565b8060005b8381101561199357815161197a888261191d565b975061198583611935565b925050600181019050611966565b5085935050505092915050565b600060208201905081810360008301526119ba8184611942565b905092915050565b6119cb81611877565b82525050565b60006020820190506119e660008301846119c2565b92915050565b6000602082019050611a0160008301846117a4565b92915050565b600080fd5b600080fd5b7f4e487b7100000000000000000000000000000000000000000000000000000000600052604160045260246000fd5b611a498261175a565b810181811067ffffffffffffffff82111715611a6857611a67611a11565b5b80604052505050565b6000611a7b611654565b9050611a878282611a40565b919050565b600067ffffffffffffffff821115611aa757611aa6611a11565b5b611ab08261175a565b9050602081019050919050565b82818337600083830152505050565b6000611adf611ada84611a8c565b611a71565b905082815260208101848484011115611afb57611afa611a0c565b5b611b06848285611abd565b509392505050565b600082601f830112611b2357611b22611a07565b5b8135611b33848260208601611acc565b91505092915050565b600060208284031215611b5257611b5161165e565b5b600082013567ffffffffffffffff811115611b7057611b6f611663565b5b611b7c84828501611b0e565b91505092915050565b60008115159050919050565b611b9a81611b85565b82525050565b6000602082019050611bb56000830184611b91565b92915050565b600080fd5b600080fd5b60008083601f840112611bdb57611bda611a07565b5b8235905067ffffffffffffffff811115611bf857611bf7611bbb565b5b602083019150836001820283011115611c1457611c13611bc0565b5b9250929050565b600080600060408486031215611c3457611c3361165e565b5b6000611c4286828701611689565b935050602084013567ffffffffffffffff811115611c6357611c62611663565b5b611c6f86828701611bc5565b92509250509250925092565b7f4e487b7100000000000000000000000000000000000000000000000000000000600052603260045260246000fd5b7f4e487b7100000000000000000000000000000000000000000000000000000000600052601160045260246000fd5b6000611ce4826117b3565b915063ffffffff821415611cfb57611cfa611caa565b5b600182019050919050565b611d0f81611b85565b8114611d1a57600080fd5b50565b600081519050611d2c81611d06565b92915050565b600081519050611d4181611672565b92915050565b6000806000806000806000806000806101408b8d031215611d6b57611d6a61165e565b5b6000611d798d828e01611d1d565b9a50506020611d8a8d828e01611d1d565b9950506040611d9b8d828e01611d32565b9850506060611dac8d828e01611d32565b9750506080611dbd8d828e01611d32565b96505060a0611dce8d828e01611d32565b95505060c0611ddf8d828e01611d32565b94505060e0611df08d828e01611d32565b935050610100611e028d828e01611d32565b925050610120611e148d828e01611d32565b9150509295989b9194979a5092959850565b7f4e487b7100000000000000000000000000000000000000000000000000000000600052602260045260246000fd5b60006002820490506001821680611e6d57607f821691505b60208210811415611e8157611e80611e26565b5b50919050565b6000611e9282611668565b91507fffffffffffffffffffffffffffffffffffffffffffffffffffffffffffffffff821415611ec557611ec4611caa565b5b600182019050919050565b6000611edb826117d2565b915061ffff821415611ef057611eef611caa565b5b600182019050919050565b7f4e487b7100000000000000000000000000000000000000000000000000000000600052601260045260246000fd5b6000611f3582611668565b9150611f4083611668565b925082611f5057611f4f611efb565b5b828206905092915050565b6000611f6682611668565b9150611f7183611668565b9250827fffffffffffffffffffffffffffffffffffffffffffffffffffffffffffffffff03821115611fa657611fa5611caa565b5b828201905092915050565b6000611fbc82611668565b9150611fc783611668565b925082611fd757611fd6611efb565b5b828204905092915050565b600081905092915050565b7f6b69747479000000000000000000000000000000000000000000000000000000600082015250565b6000612023600583611fe2565b915061202e82611fed565b600582019050919050565b600061204482612016565b9150819050919050565b60006120598261170b565b6120638185611fe2565b9350612073818560208601611727565b80840191505092915050565b600061208b828461204e565b915081905092915050565b60006120a182611668565b91506120ac83611668565b9250828210156120bf576120be611caa565b5b828203905092915050565b60006060820190506120df60008301866117a4565b81810360208301526120f1818561176b565b905061210060408301846117a4565b949350505050565b6000819050919050565b61212361211e82611668565b612108565b82525050565b60008160601b9050919050565b600061214182612129565b9050919050565b600061215382612136565b9050919050565b61216b61216682611877565b612148565b82525050565b600061217d8286612112565b60208201915061218d828561215a565b60148201915061219d8284612112565b60208201915081905094935050505056fea2646970667358221220028f25485f8791435a080002de298e4e7330f8b1b108bcebb601e97e278f840264736f6c63430008090033",
  "immutableReferences": {},
  "source": "// SPDX-License-Identifier: MIT\npragma solidity >=0.4.22 <0.9.0;\n\nimport \"./ZombieHelper.sol\";\n\ncontract ZombieAttack is ZombieHelper {\n    uint256 randNonce = 0;\n    uint256 attackVictoryProbability = 70;\n\n    function randMod(uint256 _modulus) internal returns (uint256) {\n        randNonce++;\n        return\n            uint256(\n                keccak256(\n                    abi.encodePacked(block.timestamp, msg.sender, randNonce)\n                )\n            ) % _modulus;\n    }\n\n    function attack(uint256 _zombieId, uint256 _targetId)\n        external\n        onlyOwnerOf(_zombieId)\n    {\n        Zombie storage myZombie = zombies[_zombieId];\n        Zombie storage enemyZombie = zombies[_targetId];\n        uint256 rand = randMod(100);\n        if (rand <= attackVictoryProbability) {\n            myZombie.winCount++;\n            myZombie.level++;\n            enemyZombie.lossCount++;\n            feedAndMultiply(_zombieId, enemyZombie.dna, \"zombie\");\n        } else {\n            myZombie.lossCount++;\n            enemyZombie.winCount++;\n            _triggerCooldown(myZombie);\n        }\n    }\n}\n",
  "sourcePath": "/Users/samir/Desktop/dApp/contracts/ZombieAttack.sol",
  "compiler": {
    "name": "solc",
    "version": "0.8.9+commit.e5eed63a.Emscripten.clang"
  },
  "schemaVersion": "3.4.3",
  "updatedAt": "2021-11-04T17:00:08.892Z",
  "devdoc": {
    "kind": "dev",
    "methods": {
      "isOwner()": {
        "returns": {
          "_0": "true if `msg.sender` is the owner of the contract."
        }
      },
      "owner()": {
        "returns": {
          "_0": "the address of the owner."
        }
      },
      "renounceOwnership()": {
        "details": "Allows the current owner to relinquish control of the contract."
      },
      "transferOwnership(address)": {
        "details": "Allows the current owner to transfer control of the contract to a newOwner.",
        "params": {
          "newOwner": "The address to transfer ownership to."
        }
      }
    },
    "version": 1
  },
  "userdoc": {
    "kind": "user",
    "methods": {
      "renounceOwnership()": {
        "notice": "Renouncing to ownership will leave the contract without an owner. It will not be possible to call the functions with the `onlyOwner` modifier anymore."
      }
    },
    "version": 1
  }
}