{
  "contractName": "ZombieOwnership",
  "abi": [
    {
      "anonymous": false,
      "inputs": [
        {
          "indexed": true,
          "internalType": "address",
          "name": "_owner",
          "type": "address"
        },
        {
          "indexed": true,
          "internalType": "address",
          "name": "_approved",
          "type": "address"
        },
        {
          "indexed": true,
          "internalType": "uint256",
          "name": "_tokenId",
          "type": "uint256"
        }
      ],
      "name": "Approval",
      "type": "event"
    },
    {
      "anonymous": false,
      "inputs": [
        {
          "indexed": false,
          "internalType": "uint256",
          "name": "zombieId",
          "type": "uint256"
        },
        {
          "indexed": false,
          "internalType": "string",
          "name": "name",
          "type": "string"
        },
        {
          "indexed": false,
          "internalType": "uint256",
          "name": "dna",
          "type": "uint256"
        }
      ],
      "name": "NewZombie",
      "type": "event"
    },
    {
      "anonymous": false,
      "inputs": [
        {
          "indexed": true,
          "internalType": "address",
          "name": "previousOwner",
          "type": "address"
        },
        {
          "indexed": true,
          "internalType": "address",
          "name": "newOwner",
          "type": "address"
        }
      ],
      "name": "OwnershipTransferred",
      "type": "event"
    },
    {
      "anonymous": false,
      "inputs": [
        {
          "indexed": true,
          "internalType": "address",
          "name": "_from",
          "type": "address"
        },
        {
          "indexed": true,
          "internalType": "address",
          "name": "_to",
          "type": "address"
        },
        {
          "indexed": true,
          "internalType": "uint256",
          "name": "_tokenId",
          "type": "uint256"
        }
      ],
      "name": "Transfer",
      "type": "event"
    },
    {
      "inputs": [
        {
          "internalType": "uint256",
          "name": "_zombieId",
          "type": "uint256"
        },
        {
          "internalType": "uint256",
          "name": "_targetId",
          "type": "uint256"
        }
      ],
      "name": "attack",
      "outputs": [],
      "stateMutability": "nonpayable",
      "type": "function"
    },
    {
      "inputs": [
        {
          "internalType": "uint256",
          "name": "_zombieId",
          "type": "uint256"
        },
        {
          "internalType": "uint256",
          "name": "_newDna",
          "type": "uint256"
        }
      ],
      "name": "changeDna",
      "outputs": [],
      "stateMutability": "nonpayable",
      "type": "function"
    },
    {
      "inputs": [
        {
          "internalType": "uint256",
          "name": "_zombieId",
          "type": "uint256"
        },
        {
          "internalType": "string",
          "name": "_newName",
          "type": "string"
        }
      ],
      "name": "changeName",
      "outputs": [],
      "stateMutability": "nonpayable",
      "type": "function"
    },
    {
      "inputs": [
        {
          "internalType": "string",
          "name": "_name",
          "type": "string"
        }
      ],
      "name": "createRandomZombie",
      "outputs": [],
      "stateMutability": "nonpayable",
      "type": "function"
    },
    {
      "inputs": [
        {
          "internalType": "uint256",
          "name": "_zombieId",
          "type": "uint256"
        },
        {
          "internalType": "uint256",
          "name": "_kittyId",
          "type": "uint256"
        }
      ],
      "name": "feedOnKitty",
      "outputs": [],
      "stateMutability": "nonpayable",
      "type": "function"
    },
    {
      "inputs": [],
      "name": "getLevelUpFee",
      "outputs": [
        {
          "internalType": "uint256",
          "name": "",
          "type": "uint256"
        }
      ],
      "stateMutability": "view",
      "type": "function",
      "constant": true
    },
    {
      "inputs": [
        {
          "internalType": "address",
          "name": "_owner",
          "type": "address"
        }
      ],
      "name": "getZombiesByOwner",
      "outputs": [
        {
          "internalType": "uint256[]",
          "name": "",
          "type": "uint256[]"
        }
      ],
      "stateMutability": "view",
      "type": "function",
      "constant": true
    },
    {
      "inputs": [],
      "name": "isOwner",
      "outputs": [
        {
          "internalType": "bool",
          "name": "",
          "type": "bool"
        }
      ],
      "stateMutability": "view",
      "type": "function",
      "constant": true
    },
    {
      "inputs": [
        {
          "internalType": "uint256",
          "name": "_zombieId",
          "type": "uint256"
        }
      ],
      "name": "levelUp",
      "outputs": [],
      "stateMutability": "payable",
      "type": "function",
      "payable": true
    },
    {
      "inputs": [],
      "name": "owner",
      "outputs": [
        {
          "internalType": "address",
          "name": "",
          "type": "address"
        }
      ],
      "stateMutability": "view",
      "type": "function",
      "constant": true
    },
    {
      "inputs": [],
      "name": "renounceOwnership",
      "outputs": [],
      "stateMutability": "nonpayable",
      "type": "function"
    },
    {
      "inputs": [
        {
          "internalType": "address",
          "name": "_address",
          "type": "address"
        }
      ],
      "name": "setKittyContractAddress",
      "outputs": [],
      "stateMutability": "nonpayable",
      "type": "function"
    },
    {
      "inputs": [
        {
          "internalType": "uint256",
          "name": "_fee",
          "type": "uint256"
        }
      ],
      "name": "setLevelUpFee",
      "outputs": [],
      "stateMutability": "nonpayable",
      "type": "function"
    },
    {
      "inputs": [
        {
          "internalType": "address",
          "name": "newOwner",
          "type": "address"
        }
      ],
      "name": "transferOwnership",
      "outputs": [],
      "stateMutability": "nonpayable",
      "type": "function"
    },
    {
      "inputs": [],
      "name": "withdraw",
      "outputs": [],
      "stateMutability": "nonpayable",
      "type": "function"
    },
    {
      "inputs": [
        {
          "internalType": "uint256",
          "name": "",
          "type": "uint256"
        }
      ],
      "name": "zombieToOwner",
      "outputs": [
        {
          "internalType": "address",
          "name": "",
          "type": "address"
        }
      ],
      "stateMutability": "view",
      "type": "function",
      "constant": true
    },
    {
      "inputs": [
        {
          "internalType": "uint256",
          "name": "",
          "type": "uint256"
        }
      ],
      "name": "zombies",
      "outputs": [
        {
          "internalType": "string",
          "name": "name",
          "type": "string"
        },
        {
          "internalType": "uint256",
          "name": "dna",
          "type": "uint256"
        },
        {
          "internalType": "uint32",
          "name": "level",
          "type": "uint32"
        },
        {
          "internalType": "uint32",
          "name": "readyTime",
          "type": "uint32"
        },
        {
          "internalType": "uint16",
          "name": "winCount",
          "type": "uint16"
        },
        {
          "internalType": "uint16",
          "name": "lossCount",
          "type": "uint16"
        }
      ],
      "stateMutability": "view",
      "type": "function",
      "constant": true
    },
    {
      "inputs": [
        {
          "internalType": "address",
          "name": "_owner",
          "type": "address"
        }
      ],
      "name": "balanceOf",
      "outputs": [
        {
          "internalType": "uint256",
          "name": "",
          "type": "uint256"
        }
      ],
      "stateMutability": "view",
      "type": "function",
      "constant": true
    },
    {
      "inputs": [
        {
          "internalType": "uint256",
          "name": "_tokenId",
          "type": "uint256"
        }
      ],
      "name": "ownerOf",
      "outputs": [
        {
          "internalType": "address",
          "name": "",
          "type": "address"
        }
      ],
      "stateMutability": "view",
      "type": "function",
      "constant": true
    },
    {
      "inputs": [
        {
          "internalType": "address",
          "name": "_from",
          "type": "address"
        },
        {
          "internalType": "address",
          "name": "_to",
          "type": "address"
        },
        {
          "internalType": "uint256",
          "name": "_tokenId",
          "type": "uint256"
        }
      ],
      "name": "transferFrom",
      "outputs": [],
      "stateMutability": "payable",
      "type": "function",
      "payable": true
    },
    {
      "inputs": [
        {
          "internalType": "address",
          "name": "_approved",
          "type": "address"
        },
        {
          "internalType": "uint256",
          "name": "_tokenId",
          "type": "uint256"
        }
      ],
      "name": "approve",
      "outputs": [],
      "stateMutability": "payable",
      "type": "function",
      "payable": true
    }
  ],
  "bytecode": "0x60806040526010600155600154600a6200001a919062000295565b6002556201518060035566038d7ea4c6800060085560006009556046600a553480156200004657600080fd5b50336000806101000a81548173ffffffffffffffffffffffffffffffffffffffff021916908373ffffffffffffffffffffffffffffffffffffffff16021790555060008054906101000a900473ffffffffffffffffffffffffffffffffffffffff1673ffffffffffffffffffffffffffffffffffffffff16600073ffffffffffffffffffffffffffffffffffffffff167f8be0079c531659141344cd1fd0a4f28419497f9722a3daafe3b4186f6b6457e060405160405180910390a3620002e6565b7f4e487b7100000000000000000000000000000000000000000000000000000000600052601160045260246000fd5b60008160011c9050919050565b6000808291508390505b600185111562000196578086048111156200016e576200016d62000108565b5b60018516156200017e5780820291505b80810290506200018e8562000137565b94506200014e565b94509492505050565b600082620001b1576001905062000284565b81620001c1576000905062000284565b8160018114620001da5760028114620001e5576200021b565b600191505062000284565b60ff841115620001fa57620001f962000108565b5b8360020a91508482111562000214576200021362000108565b5b5062000284565b5060208310610133831016604e8410600b8410161715620002555782820a9050838111156200024f576200024e62000108565b5b62000284565b62000264848484600162000144565b925090508184048111156200027e576200027d62000108565b5b81810290505b9392505050565b6000819050919050565b6000620002a2826200028b565b9150620002af836200028b565b9250620002de7fffffffffffffffffffffffffffffffffffffffffffffffffffffffffffffffff84846200019f565b905092915050565b61276380620002f66000396000f3fe60806040526004361061012a5760003560e01c80636352211e116100ab5780638da5cb5b1161006f5780638da5cb5b146103b65780638f32d59b146103e1578063c39cbef11461040c578063ccf670f814610435578063e1fa76381461045e578063f2fde38b146104875761012a565b80636352211e146102d15780636b2f60c81461030e57806370a0823114610339578063715018a6146103765780637bff0a011461038d5761012a565b80633ccfd60b116100f25780633ccfd60b146101ee5780634412e10414610205578063528b7b8f146102425780635f4623f11461027f5780635faf2880146102a85761012a565b8063095ea7b31461012f5780630ce90ec21461014b57806317a7f4cc146101675780632052465e1461019057806323b872dd146101d2575b600080fd5b61014960048036038101906101449190611bbe565b6104b0565b005b61016560048036038101906101609190611bfe565b6105ce565b005b34801561017357600080fd5b5061018e60048036038101906101899190611c2b565b610643565b005b34801561019c57600080fd5b506101b760048036038101906101b29190611bfe565b610770565b6040516101c996959493929190611d4f565b60405180910390f35b6101ec60048036038101906101e79190611db7565b610880565b005b3480156101fa57600080fd5b50610203610964565b005b34801561021157600080fd5b5061022c60048036038101906102279190611e0a565b6109cb565b6040516102399190611ef5565b60405180910390f35b34801561024e57600080fd5b5061026960048036038101906102649190611bfe565b610b1e565b6040516102769190611f26565b60405180910390f35b34801561028b57600080fd5b506102a660048036038101906102a19190611e0a565b610b51565b005b3480156102b457600080fd5b506102cf60048036038101906102ca9190611c2b565b610ba6565b005b3480156102dd57600080fd5b506102f860048036038101906102f39190611bfe565b610cf9565b6040516103059190611f26565b60405180910390f35b34801561031a57600080fd5b50610323610d36565b6040516103309190611f41565b60405180910390f35b34801561034557600080fd5b50610360600480360381019061035b9190611e0a565b610d40565b60405161036d9190611f41565b60405180910390f35b34801561038257600080fd5b5061038b610d89565b005b34801561039957600080fd5b506103b460048036038101906103af9190612091565b610e58565b005b3480156103c257600080fd5b506103cb610ebf565b6040516103d89190611f26565b60405180910390f35b3480156103ed57600080fd5b506103f6610ee8565b60405161040391906120f5565b60405180910390f35b34801561041857600080fd5b50610433600480360381019061042e9190612170565b610f3f565b005b34801561044157600080fd5b5061045c60048036038101906104579190611bfe565b611033565b005b34801561046a57600080fd5b5061048560048036038101906104809190611c2b565b61104e565b005b34801561049357600080fd5b506104ae60048036038101906104a99190611e0a565b6112af565b005b806005600082815260200190815260200160002060009054906101000a900473ffffffffffffffffffffffffffffffffffffffff1673ffffffffffffffffffffffffffffffffffffffff163373ffffffffffffffffffffffffffffffffffffffff161461051c57600080fd5b82600b600084815260200190815260200160002060006101000a81548173ffffffffffffffffffffffffffffffffffffffff021916908373ffffffffffffffffffffffffffffffffffffffff160217905550818373ffffffffffffffffffffffffffffffffffffffff163373ffffffffffffffffffffffffffffffffffffffff167f8c5be1e5ebec7d5bd14f71427d1e84f3dd0314c0f7b2291e5b200ac8c7c3b92560405160405180910390a4505050565b60085434146105dc57600080fd5b600481815481106105f0576105ef6121d0565b5b9060005260206000209060030201600201600081819054906101000a900463ffffffff16809291906106219061222e565b91906101000a81548163ffffffff021916908363ffffffff1602179055505050565b6000600760009054906101000a900473ffffffffffffffffffffffffffffffffffffffff1673ffffffffffffffffffffffffffffffffffffffff1663e98b7f4d836040518263ffffffff1660e01b81526004016106a09190611f41565b6101406040518083038186803b1580156106b957600080fd5b505afa1580156106cd573d6000803e3d6000fd5b505050506040513d601f19601f820116820180604052508101906106f1919061229c565b9091929394959697985090919293949596975090919293949596509091929394955090919293945090919293509091925090915090508091505061076b83826040518060400160405280600581526020017f6b697474790000000000000000000000000000000000000000000000000000008152506112cc565b505050565b6004818154811061078057600080fd5b90600052602060002090600302016000915090508060000180546107a3906123aa565b80601f01602080910402602001604051908101604052809291908181526020018280546107cf906123aa565b801561081c5780601f106107f15761010080835404028352916020019161081c565b820191906000526020600020905b8154815290600101906020018083116107ff57829003601f168201915b5050505050908060010154908060020160009054906101000a900463ffffffff16908060020160049054906101000a900463ffffffff16908060020160089054906101000a900461ffff169080600201600a9054906101000a900461ffff16905086565b3373ffffffffffffffffffffffffffffffffffffffff16600b600083815260200190815260200160002060009054906101000a900473ffffffffffffffffffffffffffffffffffffffff1673ffffffffffffffffffffffffffffffffffffffff16148061094b57503373ffffffffffffffffffffffffffffffffffffffff166005600083815260200190815260200160002060009054906101000a900473ffffffffffffffffffffffffffffffffffffffff1673ffffffffffffffffffffffffffffffffffffffff16145b61095457600080fd5b61095f838383611469565b505050565b61096c610ee8565b61097557600080fd5b600061097f610ebf565b90508073ffffffffffffffffffffffffffffffffffffffff166108fc479081150290604051600060405180830381858888f193505050501580156109c7573d6000803e3d6000fd5b5050565b60606000600660008473ffffffffffffffffffffffffffffffffffffffff1673ffffffffffffffffffffffffffffffffffffffff1681526020019081526020016000205467ffffffffffffffff811115610a2857610a27611f66565b5b604051908082528060200260200182016040528015610a565781602001602082028036833780820191505090505b5090506000805b600480549050811015610b13578473ffffffffffffffffffffffffffffffffffffffff166005600083815260200190815260200160002060009054906101000a900473ffffffffffffffffffffffffffffffffffffffff1673ffffffffffffffffffffffffffffffffffffffff161415610b005780838381518110610ae557610ae46121d0565b5b6020026020010181815250508180610afc906123dc565b9250505b8080610b0b906123dc565b915050610a5d565b508192505050919050565b60056020528060005260406000206000915054906101000a900473ffffffffffffffffffffffffffffffffffffffff1681565b610b59610ee8565b610b6257600080fd5b80600760006101000a81548173ffffffffffffffffffffffffffffffffffffffff021916908373ffffffffffffffffffffffffffffffffffffffff16021790555050565b6014828160048281548110610bbe57610bbd6121d0565b5b906000526020600020906003020160020160009054906101000a900463ffffffff1663ffffffff161015610bf157600080fd5b836005600082815260200190815260200160002060009054906101000a900473ffffffffffffffffffffffffffffffffffffffff1673ffffffffffffffffffffffffffffffffffffffff163373ffffffffffffffffffffffffffffffffffffffff1614610c5d57600080fd5b6005600086815260200190815260200160002060009054906101000a900473ffffffffffffffffffffffffffffffffffffffff1673ffffffffffffffffffffffffffffffffffffffff163373ffffffffffffffffffffffffffffffffffffffff1614610cc857600080fd5b8360048681548110610cdd57610cdc6121d0565b5b9060005260206000209060030201600101819055505050505050565b60006005600083815260200190815260200160002060009054906101000a900473ffffffffffffffffffffffffffffffffffffffff169050919050565b6000600854905090565b6000600660008373ffffffffffffffffffffffffffffffffffffffff1673ffffffffffffffffffffffffffffffffffffffff168152602001908152602001600020549050919050565b610d91610ee8565b610d9a57600080fd5b600073ffffffffffffffffffffffffffffffffffffffff1660008054906101000a900473ffffffffffffffffffffffffffffffffffffffff1673ffffffffffffffffffffffffffffffffffffffff167f8be0079c531659141344cd1fd0a4f28419497f9722a3daafe3b4186f6b6457e060405160405180910390a360008060006101000a81548173ffffffffffffffffffffffffffffffffffffffff021916908373ffffffffffffffffffffffffffffffffffffffff160217905550565b6000600660003373ffffffffffffffffffffffffffffffffffffffff1673ffffffffffffffffffffffffffffffffffffffff1681526020019081526020016000205414610ea457600080fd5b6000610eaf826115c5565b9050610ebb828261160a565b5050565b60008060009054906101000a900473ffffffffffffffffffffffffffffffffffffffff16905090565b60008060009054906101000a900473ffffffffffffffffffffffffffffffffffffffff1673ffffffffffffffffffffffffffffffffffffffff163373ffffffffffffffffffffffffffffffffffffffff1614905090565b6002838160048281548110610f5757610f566121d0565b5b906000526020600020906003020160020160009054906101000a900463ffffffff1663ffffffff161015610f8a57600080fd5b846005600082815260200190815260200160002060009054906101000a900473ffffffffffffffffffffffffffffffffffffffff1673ffffffffffffffffffffffffffffffffffffffff163373ffffffffffffffffffffffffffffffffffffffff1614610ff657600080fd5b84846004888154811061100c5761100b6121d0565b5b9060005260206000209060030201600001919061102a9291906119ed565b50505050505050565b61103b610ee8565b61104457600080fd5b8060088190555050565b816005600082815260200190815260200160002060009054906101000a900473ffffffffffffffffffffffffffffffffffffffff1673ffffffffffffffffffffffffffffffffffffffff163373ffffffffffffffffffffffffffffffffffffffff16146110ba57600080fd5b6000600484815481106110d0576110cf6121d0565b5b906000526020600020906003020190506000600484815481106110f6576110f56121d0565b5b9060005260206000209060030201905060006111126064611840565b9050600a5481116112235782600201600881819054906101000a900461ffff168092919061113f90612425565b91906101000a81548161ffff021916908361ffff1602179055505082600201600081819054906101000a900463ffffffff168092919061117e9061222e565b91906101000a81548163ffffffff021916908363ffffffff1602179055505081600201600a81819054906101000a900461ffff16809291906111bf90612425565b91906101000a81548161ffff021916908361ffff1602179055505061121e8683600101546040518060400160405280600681526020017f7a6f6d62696500000000000000000000000000000000000000000000000000008152506112cc565b6112a7565b82600201600a81819054906101000a900461ffff168092919061124590612425565b91906101000a81548161ffff021916908361ffff1602179055505081600201600881819054906101000a900461ffff168092919061128290612425565b91906101000a81548161ffff021916908361ffff160217905550506112a68361189c565b5b505050505050565b6112b7610ee8565b6112c057600080fd5b6112c9816118cf565b50565b826005600082815260200190815260200160002060009054906101000a900473ffffffffffffffffffffffffffffffffffffffff1673ffffffffffffffffffffffffffffffffffffffff163373ffffffffffffffffffffffffffffffffffffffff161461133857600080fd5b60006004858154811061134e5761134d6121d0565b5b90600052602060002090600302019050611367816119c6565b61137057600080fd5b6002548461137e919061247f565b93506000600285836001015461139491906124b0565b61139e9190612506565b90506040516020016113af9061258e565b60405160208183030381529060405280519060200120846040516020016113d691906125d4565b604051602081830303815290604052805190602001201415611419576063606482611401919061247f565b8261140c91906125eb565b61141691906124b0565b90505b6114586040518060400160405280600681526020017f4e6f4e616d6500000000000000000000000000000000000000000000000000008152508261160a565b6114618261189c565b505050505050565b600660008373ffffffffffffffffffffffffffffffffffffffff1673ffffffffffffffffffffffffffffffffffffffff16815260200190815260200160002060008154809291906114b9906123dc565b9190505550600660008473ffffffffffffffffffffffffffffffffffffffff1673ffffffffffffffffffffffffffffffffffffffff168152602001908152602001600020600081548092919061150e9061261f565b9190505550816005600083815260200190815260200160002060006101000a81548173ffffffffffffffffffffffffffffffffffffffff021916908373ffffffffffffffffffffffffffffffffffffffff160217905550808273ffffffffffffffffffffffffffffffffffffffff168473ffffffffffffffffffffffffffffffffffffffff167fddf252ad1be2c89b69c2b068fc378daa952ba7f163c4a11628f55a4df523b3ef60405160405180910390a4505050565b600080826040516020016115d991906125d4565b6040516020818303038152906040528051906020012060001c905060025481611602919061247f565b915050919050565b60046040518060c00160405280848152602001838152602001600163ffffffff1681526020016003544261163e91906124b0565b63ffffffff168152602001600061ffff168152602001600061ffff16815250908060018154018082558091505060019003906000526020600020906003020160009091909190915060008201518160000190805190602001906116a2929190611a73565b506020820151816001015560408201518160020160006101000a81548163ffffffff021916908363ffffffff16021790555060608201518160020160046101000a81548163ffffffff021916908363ffffffff16021790555060808201518160020160086101000a81548161ffff021916908361ffff16021790555060a082015181600201600a6101000a81548161ffff021916908361ffff16021790555050506000600160048054905061175791906125eb565b9050336005600083815260200190815260200160002060006101000a81548173ffffffffffffffffffffffffffffffffffffffff021916908373ffffffffffffffffffffffffffffffffffffffff160217905550600660003373ffffffffffffffffffffffffffffffffffffffff1673ffffffffffffffffffffffffffffffffffffffff16815260200190815260200160002060008154809291906117fb906123dc565b91905055507f88f026aacbbecc90c18411df4b1185fd8d9be2470f1962f192bf84a27d0704b781848460405161183393929190612649565b60405180910390a1505050565b600060096000815480929190611855906123dc565b9190505550814233600954604051602001611872939291906126f0565b6040516020818303038152906040528051906020012060001c611895919061247f565b9050919050565b600354426118aa91906124b0565b8160020160046101000a81548163ffffffff021916908363ffffffff16021790555050565b600073ffffffffffffffffffffffffffffffffffffffff168173ffffffffffffffffffffffffffffffffffffffff16141561190957600080fd5b8073ffffffffffffffffffffffffffffffffffffffff1660008054906101000a900473ffffffffffffffffffffffffffffffffffffffff1673ffffffffffffffffffffffffffffffffffffffff167f8be0079c531659141344cd1fd0a4f28419497f9722a3daafe3b4186f6b6457e060405160405180910390a3806000806101000a81548173ffffffffffffffffffffffffffffffffffffffff021916908373ffffffffffffffffffffffffffffffffffffffff16021790555050565b6000428260020160049054906101000a900463ffffffff1663ffffffff1611159050919050565b8280546119f9906123aa565b90600052602060002090601f016020900481019282611a1b5760008555611a62565b82601f10611a3457803560ff1916838001178555611a62565b82800160010185558215611a62579182015b82811115611a61578235825591602001919060010190611a46565b5b509050611a6f9190611af9565b5090565b828054611a7f906123aa565b90600052602060002090601f016020900481019282611aa15760008555611ae8565b82601f10611aba57805160ff1916838001178555611ae8565b82800160010185558215611ae8579182015b82811115611ae7578251825591602001919060010190611acc565b5b509050611af59190611af9565b5090565b5b80821115611b12576000816000905550600101611afa565b5090565b6000604051905090565b600080fd5b600080fd5b600073ffffffffffffffffffffffffffffffffffffffff82169050919050565b6000611b5582611b2a565b9050919050565b611b6581611b4a565b8114611b7057600080fd5b50565b600081359050611b8281611b5c565b92915050565b6000819050919050565b611b9b81611b88565b8114611ba657600080fd5b50565b600081359050611bb881611b92565b92915050565b60008060408385031215611bd557611bd4611b20565b5b6000611be385828601611b73565b9250506020611bf485828601611ba9565b9150509250929050565b600060208284031215611c1457611c13611b20565b5b6000611c2284828501611ba9565b91505092915050565b60008060408385031215611c4257611c41611b20565b5b6000611c5085828601611ba9565b9250506020611c6185828601611ba9565b9150509250929050565b600081519050919050565b600082825260208201905092915050565b60005b83811015611ca5578082015181840152602081019050611c8a565b83811115611cb4576000848401525b50505050565b6000601f19601f8301169050919050565b6000611cd682611c6b565b611ce08185611c76565b9350611cf0818560208601611c87565b611cf981611cba565b840191505092915050565b611d0d81611b88565b82525050565b600063ffffffff82169050919050565b611d2c81611d13565b82525050565b600061ffff82169050919050565b611d4981611d32565b82525050565b600060c0820190508181036000830152611d698189611ccb565b9050611d786020830188611d04565b611d856040830187611d23565b611d926060830186611d23565b611d9f6080830185611d40565b611dac60a0830184611d40565b979650505050505050565b600080600060608486031215611dd057611dcf611b20565b5b6000611dde86828701611b73565b9350506020611def86828701611b73565b9250506040611e0086828701611ba9565b9150509250925092565b600060208284031215611e2057611e1f611b20565b5b6000611e2e84828501611b73565b91505092915050565b600081519050919050565b600082825260208201905092915050565b6000819050602082019050919050565b611e6c81611b88565b82525050565b6000611e7e8383611e63565b60208301905092915050565b6000602082019050919050565b6000611ea282611e37565b611eac8185611e42565b9350611eb783611e53565b8060005b83811015611ee8578151611ecf8882611e72565b9750611eda83611e8a565b925050600181019050611ebb565b5085935050505092915050565b60006020820190508181036000830152611f0f8184611e97565b905092915050565b611f2081611b4a565b82525050565b6000602082019050611f3b6000830184611f17565b92915050565b6000602082019050611f566000830184611d04565b92915050565b600080fd5b600080fd5b7f4e487b7100000000000000000000000000000000000000000000000000000000600052604160045260246000fd5b611f9e82611cba565b810181811067ffffffffffffffff82111715611fbd57611fbc611f66565b5b80604052505050565b6000611fd0611b16565b9050611fdc8282611f95565b919050565b600067ffffffffffffffff821115611ffc57611ffb611f66565b5b61200582611cba565b9050602081019050919050565b82818337600083830152505050565b600061203461202f84611fe1565b611fc6565b9050828152602081018484840111156120505761204f611f61565b5b61205b848285612012565b509392505050565b600082601f83011261207857612077611f5c565b5b8135612088848260208601612021565b91505092915050565b6000602082840312156120a7576120a6611b20565b5b600082013567ffffffffffffffff8111156120c5576120c4611b25565b5b6120d184828501612063565b91505092915050565b60008115159050919050565b6120ef816120da565b82525050565b600060208201905061210a60008301846120e6565b92915050565b600080fd5b600080fd5b60008083601f8401126121305761212f611f5c565b5b8235905067ffffffffffffffff81111561214d5761214c612110565b5b60208301915083600182028301111561216957612168612115565b5b9250929050565b60008060006040848603121561218957612188611b20565b5b600061219786828701611ba9565b935050602084013567ffffffffffffffff8111156121b8576121b7611b25565b5b6121c48682870161211a565b92509250509250925092565b7f4e487b7100000000000000000000000000000000000000000000000000000000600052603260045260246000fd5b7f4e487b7100000000000000000000000000000000000000000000000000000000600052601160045260246000fd5b600061223982611d13565b915063ffffffff8214156122505761224f6121ff565b5b600182019050919050565b612264816120da565b811461226f57600080fd5b50565b6000815190506122818161225b565b92915050565b60008151905061229681611b92565b92915050565b6000806000806000806000806000806101408b8d0312156122c0576122bf611b20565b5b60006122ce8d828e01612272565b9a505060206122df8d828e01612272565b99505060406122f08d828e01612287565b98505060606123018d828e01612287565b97505060806123128d828e01612287565b96505060a06123238d828e01612287565b95505060c06123348d828e01612287565b94505060e06123458d828e01612287565b9350506101006123578d828e01612287565b9250506101206123698d828e01612287565b9150509295989b9194979a5092959850565b7f4e487b7100000000000000000000000000000000000000000000000000000000600052602260045260246000fd5b600060028204905060018216806123c257607f821691505b602082108114156123d6576123d561237b565b5b50919050565b60006123e782611b88565b91507fffffffffffffffffffffffffffffffffffffffffffffffffffffffffffffffff82141561241a576124196121ff565b5b600182019050919050565b600061243082611d32565b915061ffff821415612445576124446121ff565b5b600182019050919050565b7f4e487b7100000000000000000000000000000000000000000000000000000000600052601260045260246000fd5b600061248a82611b88565b915061249583611b88565b9250826124a5576124a4612450565b5b828206905092915050565b60006124bb82611b88565b91506124c683611b88565b9250827fffffffffffffffffffffffffffffffffffffffffffffffffffffffffffffffff038211156124fb576124fa6121ff565b5b828201905092915050565b600061251182611b88565b915061251c83611b88565b92508261252c5761252b612450565b5b828204905092915050565b600081905092915050565b7f6b69747479000000000000000000000000000000000000000000000000000000600082015250565b6000612578600583612537565b915061258382612542565b600582019050919050565b60006125998261256b565b9150819050919050565b60006125ae82611c6b565b6125b88185612537565b93506125c8818560208601611c87565b80840191505092915050565b60006125e082846125a3565b915081905092915050565b60006125f682611b88565b915061260183611b88565b925082821015612614576126136121ff565b5b828203905092915050565b600061262a82611b88565b9150600082141561263e5761263d6121ff565b5b600182039050919050565b600060608201905061265e6000830186611d04565b81810360208301526126708185611ccb565b905061267f6040830184611d04565b949350505050565b6000819050919050565b6126a261269d82611b88565b612687565b82525050565b60008160601b9050919050565b60006126c0826126a8565b9050919050565b60006126d2826126b5565b9050919050565b6126ea6126e582611b4a565b6126c7565b82525050565b60006126fc8286612691565b60208201915061270c82856126d9565b60148201915061271c8284612691565b60208201915081905094935050505056fea2646970667358221220b5e4eaab0317e1ebb26718eec0864c34b04359a0ff4f663d3d733c3fd327a25b64736f6c63430008090033",
  "immutableReferences": {},
  "source": "// SPDX-License-Identifier: MIT\npragma solidity >=0.4.22 <0.9.0;\n\nimport \"./ZombieAttack.sol\";\nimport \"@openzeppelin/contracts/token/ERC721/extensions/ERC721URIStorage.sol\";\n\ncontract ZombieOwnership is ZombieAttack {\n    mapping(uint256 => address) zombieApprovals;\n\n    event Transfer(\n        address indexed _from,\n        address indexed _to,\n        uint256 indexed _tokenId\n    );\n\n    event Approval(\n        address indexed _owner,\n        address indexed _approved,\n        uint256 indexed _tokenId\n    );\n\n    function balanceOf(address _owner) external view returns (uint256) {\n        return ownerZombieCount[_owner];\n    }\n\n    function ownerOf(uint256 _tokenId) external view returns (address) {\n        return zombieToOwner[_tokenId];\n    }\n\n    function _transfer(\n        address _from,\n        address _to,\n        uint256 _tokenId\n    ) private {\n        ownerZombieCount[_to]++;\n        ownerZombieCount[_from]--;\n        zombieToOwner[_tokenId] = _to;\n        emit Transfer(_from, _to, _tokenId);\n    }\n\n    function transferFrom(\n        address _from,\n        address _to,\n        uint256 _tokenId\n    ) external payable {\n        require(\n            zombieApprovals[_tokenId] == msg.sender ||\n                zombieToOwner[_tokenId] == msg.sender\n        );\n        _transfer(_from, _to, _tokenId);\n    }\n\n    function approve(address _approved, uint256 _tokenId)\n        external\n        payable\n        onlyOwnerOf(_tokenId)\n    {\n        zombieApprovals[_tokenId] = _approved;\n        emit Approval(msg.sender, _approved, _tokenId);\n    }\n}\n",
  "sourcePath": "/Users/samir/Desktop/dApp/contracts/ZombieOwnership.sol",
  "compiler": {
    "name": "solc",
    "version": "0.8.9+commit.e5eed63a.Emscripten.clang"
  },
  "schemaVersion": "3.4.3",
  "updatedAt": "2021-11-06T19:12:30.187Z",
  "networkType": "ethereum",
  "devdoc": {
    "kind": "dev",
    "methods": {
      "isOwner()": {
        "returns": {
          "_0": "true if `msg.sender` is the owner of the contract."
        }
      },
      "owner()": {
        "returns": {
          "_0": "the address of the owner."
        }
      },
      "renounceOwnership()": {
        "details": "Allows the current owner to relinquish control of the contract."
      },
      "transferOwnership(address)": {
        "details": "Allows the current owner to transfer control of the contract to a newOwner.",
        "params": {
          "newOwner": "The address to transfer ownership to."
        }
      }
    },
    "version": 1
  },
  "userdoc": {
    "kind": "user",
    "methods": {
      "renounceOwnership()": {
        "notice": "Renouncing to ownership will leave the contract without an owner. It will not be possible to call the functions with the `onlyOwner` modifier anymore."
      }
    },
    "version": 1
  }
}